:020000040800F2
:10000000A8B600202D020008575A00083F15000826
:10001000535A0008450A00086387000800000000E2
:10002000000000000000000000000000CD7E00087D
:10003000FD0D000800000000216000088781000815
:10004000470200084702000847020008470200086C
:10005000470200084702000847020008470200085C
:100060004702000847020008010E00084702000886
:10007000470200084702000847020008470200083C
:10008000470200084702000847020008470200082C
:10009000470200084702000847020008850E0008D2
:1000A000470200084702000847020008470200080C
:1000B00047020008E9810008198200084702000889
:1000C00047020008470200084702000847020008EC
:1000D000470200084185000847020008470200085F
:1000E00047020008470200084702000847020008CC
:1000F00047020008470200084702000847020008BC
:1001000047020008BD650008518200084702000848
:100110004702000847020008118300084702000850
:10012000470200084702000847020008470200088B
:1001300000F002F800F06BF80AA090E8000C82448E
:100140008344AAF10107DA4501D100F060F8AFF26B
:10015000090EBAE80F0013F0010F18BFFB1A43F0A5
:1001600001031847381F0100581F01000A444FF0CF
:10017000000C10F8013B13F0070408BF10F8014B06
:100180001D1108BF10F8015B641E05D010F8016B4B
:10019000641E01F8016BF9D113F0080F1EBF10F8AF
:1001A000014BAD1C0C1B09D16D1E58BF01F801CBD2
:1001B000FAD505E014F8016B01F8016B6D1EF9D555
:1001C0009142D6D37047000000230024002500266A
:1001D000103A28BF78C1FBD8520728BF30C148BFAA
:1001E0000B607047642900F0D780752900F0D48037
:1001F000782900F00D81632900F09F83732900F0B6
:10020000A483002070471FB51FBD10B510BD00F0BE
:10021000E9FB1146FFF7F7FF0CF03AFC00F007FC92
:1002200003B4FFF7F2FF03BC08F0BBFA09488047AC
:1002300009480047FEE7FEE7FEE7FEE7FEE7FEE7C8
:10024000FEE7FEE7FEE7FEE704480549054A064BE0
:10025000704700008981000831010008A8B0002023
:10026000A8B60020A8B20020A8B20020704710B5A0
:100270004C1084EA530404D54042C1F1000138BF58
:10028000491E1B4204D55242C3F1000338BF5B1E16
:1002900000F05CFA14F0804F04D04042C1F100013C
:1002A00038BF491E14F0004F04D05242C3F100037E
:1002B00038BF5B1E10BD00000FB4044910B503AA7F
:1002C000029800F047FB10BC5DF814FB44000020CE
:1002D0000FB41CB5074B06AA7B44694600900598ED
:1002E00000F009FB0020694600F018FB1CBC5DF81B
:1002F00014FB00004106000070B5044685690068E3
:10030000C10601D5302600E02026C00707D070BD09
:10031000D4E9012130469047206A401C20626D1EBE
:10032000F6D570BD70B5044685690078C00707D161
:1003300070BDD4E9012120209047206A401C206232
:100340006D1EF6D570BD70B50C460546012A05D068
:100350002878800600D5EA69002302E0012305E041
:100360005B1C934202D2E05C0028F9D1A869E61830
:10037000C01AA861286A184428622846FFF7BCFF03
:1003800004E0D5E9012114F8010B9047B442F8D3F9
:100390002846FFF7C7FF70BD2DE9F041064600244F
:1003A00010687529314616A510D0AFF300800028DB
:1003B00002DA404213A507E031688A0701D512A589
:1003C00002E0490704D511A5012401E0AFF3008044
:1003D00000210A2206F1240709E0B0FBF2FCB0FB81
:1003E000F2F302FB1C00303078541846491C0028F8
:1003F000F3D123462A463046BDE8F04100F01DBA4D
:10040000000000002D0000002B0000002000000074
:1004100070B504460D4621461068AFF30080218870
:10042000090502D50F4A7A4402E00E4A7A440E3298
:10043000002104F1240305E000F00F060009965D99
:100440005E54491C0028F7D120780023000704D50A
:10045000702D02D009B1022311322046BDE8704050
:1004600000F0EBB9661A01002DE9F05F89460446F9
:100470004FF0000ADFF874B1FB44C0F820A020461A
:10048000E1688847002874D0252806D0D4E90121E6
:100490009047206A401C2062F1E700265F46204614
:1004A000E16888472028054607DB312D05D27819F9
:1004B00010F8200C08B10643F1E7B00701D526F08B
:1004C0000406C4F81CA00027C4F818A02A2D09D0DF
:1004D000284608F05FF938B304EB8708303DC8F8C8
:1004E000185019E059F8041B204604EB870291616B
:1004F000E1688847012F054618D1E069002820DA15
:1005000026F020061DE0D8F8180000EB800005EB6F
:1005100040003038C8F818002046E1688847054692
:1005200008F038F90028EED1012F0AD02E2D08D17D
:100530002046E16888477F1C0546022F46F02006CA
:10054000C4DBA069002803DA404246F00106A0613E
:10055000F00701D026F010066C2D0BD0682D09D0C5
:100560004C2D39D06A2D35D0742D35D07A2D33D01D
:1005700016E038E0E1682F4620468847B842054635
:1005800009D16C2F26D04FF48060E16806432046E5
:100590008847054604E06C2F1AD04FF4807006435C
:1005A0000DB3A5F14100192802D8203546F40066A4
:1005B0004A462946204626604E46FFF713FE80B184
:1005C00001280BD0F61D26F0070000F1080956E7B8
:1005D0004020E4E78020D8E70020D6E706F10409B0
:1005E0004DE7284652E7206ABDE8F09F3C1A01001B
:1005F00040EA0103024630B59B0710D14FF00134A9
:1006000000E008C208C91D1B9D4315EAC41FF8D0AD
:1006100013F0FF0102F8011B0DD01B0AF8E711F8D7
:10062000013B002B02F8013B05D011F8013B002BE8
:1006300002F8013BF3D130BD032A40F2308010F0C4
:10064000030C00F0158011F8013BBCF1020F62446D
:1006500098BF11F801CB00F8013B38BF11F8013BFE
:10066000A2F1040298BF00F801CB38BF00F8013BAB
:1006700011F0030300F08081083AC0F0088051F8BF
:10068000043B083A51F804CBA0E80810F5E7121D26
:100690005CBF51F8043B40F8043BAFF30080D20745
:1006A00024BF11F8013B11F801CB48BF11F8012B11
:1006B00024BF00F8013B00F801CB48BF00F8012B34
:1006C000704700004FF0013C50F8042B51F8043BF8
:1006D0009A4221D1A2EB0C03934313EACC1317D116
:1006E00050F8042B51F8043B9A4215D1A2EB0C03AD
:1006F000934313EACC130BD150F8042B51F8043B6D
:100700009A4209D1A2EB0C03934313EACC13DBD03A
:100710004FF00000704700BFD01A01BAB1FA81F162
:1007200001F0180122FA01F0CB40C1F12001DBB247
:10073000C0B2C01A2CFA01F3D11A914311EAC311C5
:10074000E6D17047704770477047704753EA020C14
:1007500000F069802DE9F04B4FF00006002B1FBF21
:10076000B3FA83F503FA05F424FA05F65E4012BFE6
:100770001643B2FA82F502FA05F4C5F120051EBF50
:1007800022FA05FC44EA0C04203556EA044C4FEAF0
:10079000144418BF641C4FF000084FF00009904249
:1007A00071EB030C39D3002919BFB1FA81F701FAB3
:1007B00007F6B0FA80F700FA07F6C7F120071EBF68
:1007C00020FA07FC46EA0C062037B6FBF4FCA7EB40
:1007D0000507103F07F01F0BCBF120060CFA0BFBAF
:1007E0002CFA06F644BFB3460026202FA4BF5E466F
:1007F0004FF0000B5BEA060C08BF4FF0010B19EB42
:100800000B09ABFB027C48EB0608C01B06FB02CCC5
:100810000BFB03CC71EB0C01C1E70B4602464146D2
:100820004846BDE8F08B13B54FF000004FF00001D3
:10083000AFF30080BDE81C4070472DE9F0470D463E
:1008400099469246044600F124080168880604D5BA
:10085000E06921F01001216000E00120A84201DDE3
:10086000471B00E00027A1697A1902EB0900081A6A
:10087000A0612078C00602D42046FFF73DFD002687
:1008800008E0D4E901211AF806009047206A401CCC
:10089000761C20624E45F4DB2078C0060AD520463F
:1008A000FFF72AFD06E0D4E9012130209047206AB5
:1008B000401C2062381EA7F10107F4DC07E0D4E9F0
:1008C000012118F805009047206A401C2062281E6C
:1008D000A5F10105F3DC2046FFF724FD2078000692
:1008E00002D50220BDE8F0870120FBE701694A1C20
:1008F00002610878704700B58FB0CDE90131002161
:10090000059105497944CDE9031011466846FFF782
:10091000ABFD0FB000BD0000E5FFFFFF0A6802F865
:10092000010B0A60704710B5436913B1AFF3008043
:1009300001E0FFF708FD012010BD127800F124014D
:100940000A7000224A700122EDE711684FF0FF3271
:10095000E9E70000074B70B50D467B44FFF7CBFF7E
:100960000446284600F03AF810B14FF0FF3070BD51
:10097000204670BD53A7000010B5203AC0F00B8090
:10098000B1E81850203AA0E81850B1E81850A0E893
:100990001850BFF4F5AF5FEA027C24BFB1E81850ED
:1009A000A0E8185044BF18C918C0BDE810405FEA5D
:1009B000827C24BF51F8043B40F8043B08BF7047D9
:1009C000D20728BF31F8023B48BF11F8012B28BFDE
:1009D00020F8023B48BF00F8012B7047007B00F075
:1009E00080007047754600F029F8AE46050069465C
:1009F000534620F00700854618B020B5FFF724FCC9
:100A0000BDE820404FF000064FF000074FF000080F
:100A10004FF0000B21F00701AC46ACE8C009ACE890
:100A2000C009ACE8C009ACE8C0098D46704704466F
:100A3000AFF300802046FFF7F3FB0000004870474B
:100A400044B0002000BFFEE770B505460C46002606
:100A5000284605F081FB064626EA0401284607F0F1
:100A600083FE70BD70B500254FF4803404E0802013
:100A700005F090FD00B103E02000A4F10104F6D1DF
:100A800000BF0CB9032070BD40F2FF5005F03CFDE3
:100A90002846F8E770B5044605E01548456B05F0B3
:100AA000450000B100E0F8E700BF042005F072FD4A
:100AB00020B1042005F028FD032070BD012005F0C1
:100AC00069FD20B1012005F01FFD0120F5E7084870
:100AD0000069A04201D01020EFE740F2FF50044926
:100AE00088630846406908210840C0B2E5E7000075
:100AF0000080014070B500264FF4803505E01148B4
:100B0000446B04F0450000B103E02800A5F10105A5
:100B1000F5D100BF15B104F0040028B1032604206C
:100B200005F0F2FC304670BD012005F033FD18B130
:100B30000126012005F0E8FC40F2FF5005F0E4FC3E
:100B40003046F0E70080014010B505E00B48446BEB
:100B500004F0450000B100E0F8E700BF042005F014
:100B600019FD20B1042005F0CFFC032010BD40F298
:100B7000FF5005F0C9FC0020F8E7000000800140AC
:100B80002DE9F04105460E464FF0000805E01F48EC
:100B9000476B07F0450000B100E0F8E700BF042014
:100BA00005F0F8FC28B1042005F0AEFC0320BDE8F8
:100BB000F081012005F0EEFC20B1012005F0A4FC3D
:100BC0000120F4E711480069A84201D01020EEE7A7
:100BD00040F2FF5005F098FC0C48446904F4604072
:100BE00018B9200C30804046E1E704F4005008B109
:100BF0001320DCE704F4804008B11020D7E704F4A8
:100C0000004008B10F20D2E74046D0E70080014005
:100C100070B500264FF4803505E00F48446B04F0B2
:100C2000450000B103E02800A5F10105F5D100BFA2
:100C300015B104F0040028B10326042005F064FC7B
:100C4000304670BD04F0400018B10026402005F089
:100C50005BFC3046F5E700000080014021B10268EE
:100C600042F00102026004E002684FF6FE731A408F
:100C70000260704701684FF6FE721140016000216A
:100C8000016041608160C1604B49884208D14A4996
:100C90000839496841F00F01474A083A51608AE033
:100CA00045491431884208D143490839496841F01F
:100CB000F001414A083A51607DE03F4928318842BD
:100CC00008D13D490839496841F470613A4A083A07
:100CD000516070E038493C31884208D136490839C2
:100CE000496841F47041344A083A516063E032493E
:100CF0005031884208D130490839496841F470219F
:100D00002D4A083A516056E02B496431884208D197
:100D100029490839496841F47001274A083A516065
:100D200049E025497831884208D123490839496882
:100D300041F07061204A083A51603CE01F49884206
:100D400006D1011F096841F00F01021F116032E056
:100D50001A491431884208D11849091F096841F01D
:100D6000F001164A121F116025E01449283188420B
:100D700008D11249091F096841F470610F4A121F16
:100D8000116018E00D493C31884208D10B49091F18
:100D9000096841F47041094A121F11600BE00749CC
:100DA0005031884207D10549091F096841F4702173
:100DB000024A121F116070470800024008040240F6
:100DC00010B50022026847F6F0739A430C6A8B68EC
:100DD00023430C6923434C6923438C692343CC6927
:100DE00023434C6A23438C6A23431A430260CB6833
:100DF00043600B6883604B68C36010BD70470000A0
:100E000010B5102000F068F860B10848007848B9C3
:100E100001200749086000200649C1F8940101201B
:100E200005490870102000F051F810BD070000209F
:100E3000A081214200002342080000200EB50821B5
:100E4000002000F025FA4FF48070019000208DF80A
:100E5000080008208DF8090001208DF80A0001A87B
:100E600000F04EF817208DF8000000208DF80100EA
:100E70008DF8020001208DF80300684604F000FEA2
:100E80000EBD000010B54FF4807000F025F8012869
:100E90000ED100200949086001200949C1F89801D4
:100EA0000849C1F88C0108480078401C06490870C0
:100EB0004FF4807000F00AF810BD000098812242C3
:100EC0000080224200802142200000200149086069
:100ED0007047000014040140014600200022074B27
:100EE0001B6803EA0102054B14331B680B4013B166
:100EF0000AB1012000E0002070470000000401401A
:100F0000002123498279002A3AD00A4612680368F0
:100F10009A430B461A600A1D126803689A430B1D18
:100F20001A60027911440A6803681A430A60184A71
:100F30000832126803689A43154B08331A601A1D69
:100F4000126803689A43124B0C331A604279102AD4
:100F50000ED11A1F126803681A430D4B08331A602A
:100F60001A1D126803681A43094B0C331A600DE00E
:100F70000749427911440A6803681A430A6005E088
:100F8000027911440A6803689A430A6070470000B6
:100F9000000401400EB50121412005F063F804F082
:100FA0005BFD1020ADF8080028208DF80B0002A989
:100FB0000A4800F08DF90421084600F069F9102074
:100FC000009000208DF8040008208DF80500012015
:100FD0008DF806006846FFF793FF0EBD001801402C
:100FE00051B18200A2F1C042126842F001038200B6
:100FF000A2F1C042136009E08200A2F1C04212686F
:10100000034B1A408300A3F1C0431A6070470000ED
:10101000FEFF0F00D0E901121143C26811430269BB
:1010200011434269114382691143C2691143026A43
:101030001143426A1143826A1143C26A1143026B2F
:10104000114302689200A2F1C04211608168082930
:101050000BD101688900A1F1C041096841F040024B
:1010600001688900A1F1C0410A60416B0968426BC7
:10107000526841EA0211426B926841EA0221426BD6
:10108000928941EA0241426B128A41EA0251426B63
:10109000127D41EA0261426B926911430268521C5F
:1010A0009200A2F1C0421160C16AB1F5804F1BD11C
:1010B000816B0968826B526841EA0211826B926807
:1010C00041EA0221826B128A41EA0251826B127D4F
:1010D00041EA0261826B9269114302689200A2F1B7
:1010E000C042C2F8041107E06FF070420168890045
:1010F000A1F1C041C1F80421704700002DE9FC4175
:1011000007460D460026002400200090019008208C
:101110005B49086010204860402088600020C8605B
:101120004FF480600861084605F06AFA1020FFF766
:10113000B1FC044614B12046BDE8FC81514800884A
:1011400000044F4908603720486040208860002034
:10115000C8604FF480600861084605F051FA3720F6
:10116000FFF798FC04460CB12046E5E74FF0FF304E
:101170004549086008204860302088600220C86027
:101180000020086101204861084605F0D9F90020D7
:101190003B49086033204860402088600020C860D8
:1011A0004FF480600861084605F02AFA3320FFF703
:1011B00071FC04460CB12046BEE70CE04FF4001071
:1011C00005F0E8F938B105F015FA4DF82600761C5F
:1011D000022E00D306E02D48406B40F22A61084001
:1011E0000028EBD000BF082005F0D4F920B108207A
:1011F00005F08AF904209FE7022005F0CBF920B121
:10120000022005F081F9022096E7202005F0C2F9BE
:1012100020B1202005F078F906208DE74FF400700A
:1012200005F0B8F928B14FF4007005F06DF907200A
:1012300082E740F2FF5005F067F900980006009938
:1012400001F47F4140EA0120009901F47F0140EA66
:101250001120009940EA1160686001980006019928
:1012600001F47F4140EA0120019901F47F0140EA45
:101270001120019940EA1160286020465CE70000D7
:10128000200200202C0000203402002000800140B9
:1012900030B500228B071C0F0F2303FA04F20B4B0F
:1012A0008C1053F824309343084C8D1044F82530AB
:1012B00023468C1053F824308C07240F00FA04F4D2
:1012C0002343024C8D1044F8253030BD0800014006
:1012D0002DE9F041024600250026002000230024CD
:1012E000002791F803C00CF00F0591F803C00CF033
:1012F000100CBCF1000F03D091F802C04CEA0505B8
:1013000091F800C0BCF1000F31D0146800202BE030
:101310004FF0010C0CFA00F3B1F800C00CEA030620
:101320009E4220D183004FF00F0C0CFA03F7BC4310
:1013300005FA03FC4CEA040491F803C0BCF1280F41
:1013400006D14FF0010C0CFA00FCC2F814C00AE000
:1013500091F803C0BCF1480F05D14FF0010C0CFA15
:1013600000FCC2F810C0401C0828D1D31460B1F8AA
:1013700000C0BCF1FF0F34DD546800202EE000F106
:10138000080C4FF0010808FA0CF3B1F800C00CEAA1
:1013900003069E4221D183004FF00F0C0CFA03F795
:1013A000BC4305FA03FC4CEA040491F803C0BCF109
:1013B000280F05D100F1080C08FA0CF8C2F81480C7
:1013C00091F803C0BCF1480F07D100F1080C4FF0B1
:1013D000010808FA0CF8C2F81080401C0828CED387
:1013E0005460BDE8F0810000F0B50A4600230024F7
:1013F0000021002500F00046B6F1004F02D11D4E3D
:10140000F16901E01B4E7168C0F3034583B200F43B
:101410004016B6F5401F08D121F07061154E766870
:1014200026F07066134F7E6012E000F48016B6F569
:10143000801F06D1032606FA05F4A14341F070612E
:1014400006E0460D360103FA06F6B14341F070613D
:1014500022B1460D360103FA06F6314300F000468C
:10146000B6F1004F02D1034EF16101E0014E71600F
:10147000F0BD0000000001400246002093680B40D0
:101480000BB1012000E0002070474161704701610D
:1014900070472DE9F04704460D4611464FEAE279C0
:1014A00002EB59794FEAE90994464FEAE27A02EBF6
:1014B0005A7A4FEAEA0AA2EBCA0ABAF1000F02D03E
:1014C0004FF0010A01E04FF0000AD14409FB02F994
:1014D00009F0FF072378611C0C460878812B05DB97
:1014E000402803DBFF2801D0FF2B0AD1002604E0AF
:1014F000002105F8011B711CCEB2BE42F8DBBDE82D
:10150000F0877F2803DAA0F14001C8B202E0A0F121
:101510004101C8B2A3F18101CBB2BE2101FB03019D
:1015200001FB07F80C2A04D0102A03D0182A03D193
:1015300001E001E000E000BF00BF00BFDFE700BF47
:10154000FEE772B6704762B6704710B506F020FC31
:1015500004F02AFD04F013FC022008F0E7F804F080
:1015600014FC412004F046FA10BD00001CB50446EE
:101570000020019000902148008800042049086064
:101580000D204860402088600020C8604FF48060D3
:101590000861084605F034F81A48406B009002E0F4
:1015A0001848406B0090009800F045000028F7D0E4
:1015B000012004F0EFFF20B1012004F0A5FF01207D
:1015C0001CBD042004F0E6FF20B1042004F09CFFC1
:1015D0000320F5E70B4800690D2801D01020EFE744
:1015E00040F2FF5004F090FF0648406901900198D6
:1015F000C0F3432020700020E2E700002C00002010
:10160000200200200080014030B5014601F01F0497
:10161000C1F34513CA0AE50205EB43151544A8B208
:1016200030BD000070B50446002617480588408884
:1016300045431548808846F60401884216D1124871
:101640008079012812D100200F4988712A20488111
:101650002B2088810021084603F09EFF01200A49C3
:1016600088712B2048812A20888103E000210846C8
:1016700003F092FF04F0ACF9002602E00348048076
:10168000761CAE42FAD370BDF80100200008006C51
:1016900010B50446002C60D166498871F02008809E
:1016A0004FF4A07048800846808849F24131884252
:1016B0000BD06048808846F60401884205D05D481A
:1016C000808845F2103188421AD12C20594908816E
:1016D0002A2048812B2088810846808846F604010C
:1016E000884205D05348808845F21031884206D19F
:1016F0004FF4A0704F4908804FF4F070488095E097
:101700004C48808848F68911884207D122204949EF
:1017100008814E2048814F20888187E04548808895
:1017200045F21051884210D14FF4305041490881A0
:101730004FF4285048814FF42C5088814FF4F070BA
:1017400008804FF44870488070E0222039490881B1
:10175000202048812120888168E001203549887156
:101760004FF4A0700880F02048800846808849F235
:101770004131884205D02F48808845F21031884297
:1017800007D12C202B4908812A2048812B208881D1
:1017900039E02848808846F60401884207D12C2089
:1017A000244908812B2048812A2088812BE0214868
:1017B000808848F68911884207D122201D49088176
:1017C0004F2048814E2088811DE01A48808845F2CC
:1017D0001051884210D14FF43050164908814FF40F
:1017E000285048814FF42C5088814FF4487008806D
:1017F0004FF4F070488006E022200E490881212035
:101800004881202088810B48808846F60401884260
:1018100005D00848808845F21031884206D14FF43F
:10182000F070044908804FF4A0704880002003F055
:101830004FFD10BDF801002030B504460D46294685
:10184000204603F0A9FE04F0C3F8024800880249CC
:10185000088030BD220000200008006C30B503462F
:101860000C4615464248808849F24131884205D0ED
:101870003F48808845F21031884214D13C4948895C
:1018800004F0A0F8181204F097F8D8B204F094F815
:101890003749888904F096F8201204F08DF8E0B2F8
:1018A00004F08AF85DE03248808845F210518842A1
:1018B00020D12F49488904F085F8181204F07CF8EB
:1018C0002B494989491C88B204F07CF8D8B204F04D
:1018D00073F82749888904F075F8201204F06CF831
:1018E00023498989491C88B204F06CF8E0B204F0FD
:1018F00063F836E01E48808846F6040188421DD110
:101900001B488079012804D119480088401EC01A5C
:1019100083B21749488904F055F8181204F04CF8BE
:10192000D8B204F049F81249888904F04BF8201223
:1019300004F042F8E0B204F03FF812E00C4880797D
:10194000012804D10A480088401EC01A83B2084901
:101950004889194604F046F805498889214604F06B
:1019600041F80348008903490880881C058030BD80
:10197000F8010020FE07006C2DE9FC4F05460E46DD
:1019800017469846DDF82C90002001902748808863
:1019900046F60401884229D124488079012825D1BE
:1019A000AB46354621480088C01B401E86B24746DC
:1019B0001E480088A0EB0B00401E1FFA80F8002094
:1019C0001A4988712A2048812B20888143463A464B
:1019D00031462846CDF80090FFF7CEFF012013498D
:1019E00088712B2048812A2088811CE0781B401CAC
:1019F00080B20190344614E02146284603F0CCFD25
:101A000003F0E6FF4FF0000A06E0484603F0D4FF7B
:101A10000AF101001FFA80FA01988245F5DB601C8B
:101A200084B24445E8DDBDE8FC8F0000F8010020E9
:101A300000B59FB00121080204F0F4FA012140F240
:101A4000691004F00FFB0120ADF8780010208DF82C
:101A50007B0003208DF87A001EA9FE48FFF738FCB2
:101A60004CF23370ADF8780018208DF87B0003201D
:101A70008DF87A001EA9F848FFF72AFC4FF680700F
:101A8000ADF8780018208DF87B0003208DF87A00DF
:101A90001EA9F248FFF71CFC41F20100ADF87800E6
:101AA00018208DF87B0003208DF87A001EA9EC48E1
:101AB000FFF70EFC01200890002009900F200A90EB
:101AC00000200B900C900D900E900190029003203E
:101AD00003900020049005900690079006200F9038
:101AE000002010901190102012900020139015905B
:101AF0001490169017904FF4805018900020199071
:101B00004FF480401A9000201B9008A81C9001A858
:101B10001D900FA8FFF77EFA01210620FFF760FA5B
:101B2000322007F003FE0121002003F05BFF32208A
:101B300007F0FCFD002003F0BFFBCA49888008467F
:101B40008088FF280ADB084680884FF6FF718842AC
:101B500004D0C4488088B0F5134F7CD1D32003F063
:101B600031FF03F0EFFA03F0EDFA03F0EBFABD49B1
:101B70008880084680884FF6FF7101EA0020B94945
:101B8000888003F0DFFAB74989880843B54988801F
:101B90000846808849F2413188426CD0BF2003F06A
:101BA00011FF03F0CFFA03F0CDFA03F0CBFA03F004
:101BB000C9FAAC498880084680884FF6FF7101EA6F
:101BC0000020A849888003F0BDFAA6498988084307
:101BD000A44988800846808846F6040188424AD095
:101BE000D42003F0EFFE03F0ADFA03F0ABFA03F0FC
:101BF000A9FA9C498880084680884FF6FF7101EA5F
:101C000000209849888003F09DFA96498988084306
:101C1000944988800846808845F2103188422AD04D
:101C20004FF45A4003F0CEFE03F08CFA4FF45B40C1
:101C300003F0C8FE03F086FA8A4988800846808847
:101C40004FF6FF7101EA0020864988804FF45C401E
:101C500003F0B8FE00E00EE003F074FA81498988D1
:101C600008438049888008468088B0F5004F02D13B
:101C700045F2105088807B4881887BA0FEF71CFBD2
:101C80007848808849F2413188427CD1CF2003F0E6
:101C900099FE002003F090FEC12003F08DFE30205D
:101CA00003F08AFEED2003F08DFE642003F084FE35
:101CB000032003F081FE122003F07EFE812003F05A
:101CC0007BFEE82003F07EFE852003F075FE1020E9
:101CD00003F072FE7A2003F06FFECB2003F072FE59
:101CE000392003F069FE2C2003F066FE002003F08B
:101CF00063FE342003F060FE022003F05DFEF72057
:101D000003F060FE202003F057FEEA2003F05AFEA5
:101D1000002003F051FE002003F04EFEC02003F02F
:101D200051FE1B2003F048FEC12003F04BFE0120B2
:101D300003F042FEC52003F045FE302003F03CFED8
:101D4000302003F039FEC72003F03CFEB72003F03B
:101D500033FE362003F036FE482003F02DFE3A20F5
:101D600003F030FE552003F027FEB12003F02AFED9
:101D7000002003F021FE1A2003F01EFEB62003F01F
:101D800021FE0A2000E0ACE003F016FEA22003F0E2
:101D900013FEF22003F016FE002003F00DFE2620B5
:101DA00003F010FE012003F007FEE02003F00AFE1E
:101DB0000F2003F001FE2A2003F0FEFD282003F08F
:101DC000FBFD082003F0F8FD0E2003F0F5FD0820D0
:101DD00003F0F2FD542003F0EFFDA92003F0ECFD29
:101DE000432003F0E9FD0A2003F0E6FD0F2003F095
:101DF000E3FD002003F0E0FD002003F0DDFD002006
:101E000003F0DAFD002003F0D7FDE12003F0DAFD56
:101E1000002003F0D1FD152003F0CEFD172003F0C4
:101E2000CBFD072003F0C8FD112003F0C5FD0620FF
:101E300003F0C2FD2B2003F0BFFD562003F0BCFDD4
:101E40003C2003F0B9FD052003F0B6FD102003F09F
:101E5000B3FD11E0000C01400014014000180140E6
:101E600000200140F8010020204C43442049443A1E
:101E700025780D0A000000000F2003F09DFD3F2093
:101E800003F09AFD3F2003F097FD0F2003F094FD2F
:101E90002B2003F097FD002003F08EFD002003F0BF
:101EA0008BFD012003F088FD3F2003F085FD2A20F3
:101EB00003F088FD002003F07FFD002003F07CFD8F
:101EC000002003F079FDEF2003F076FD112003F0F0
:101ED00079FD782007F02AFC292003F073FD03F038
:101EE00020B9FE48808846F6040188427ED1112040
:101EF00003F068FD142007F019FCD02003F062FD08
:101F0000072003F059FD422003F056FD1D2003F089
:101F100053FDD12003F056FD002003F04DFD1A20A3
:101F200003F04AFD092003F047FDD22003F04AFDEB
:101F3000012003F041FD222003F03EFDC02003F00C
:101F400041FD102003F038FD3B2003F035FD00205B
:101F500003F032FD022003F02FFD112003F02CFDD1
:101F6000C52003F02FFD032003F026FDC82003F059
:101F700029FD002003F020FD252003F01DFD212078
:101F800003F01AFD052003F017FD002003F014FDF7
:101F90000A2003F011FD652003F00EFD252003F05B
:101FA0000BFD772003F008FD502003F005FD0F2006
:101FB00003F002FD002003F0FFFCF82003F002FD17
:101FC000012003F0F9FCFE2003F0FCFC002003F0EC
:101FD000F3FC022003F0F0FC202003F0F3FC362099
:101FE00003F0F0FC082003F0E7FC00E02AE03A20D0
:101FF00003F0E8FC552003F0DFFC2B2003F0E2FCAB
:10200000002003F0D9FC002003F0D6FC012003F0EF
:10201000D3FC3F2003F0D0FC2A2003F0D3FC0020A7
:1020200003F0CAFC002003F0C7FC012003F0C4FC4D
:10203000DF2003F0C1FC782007F078FB292003F0B3
:10204000C1FC4CE7A548808845F21031884240F039
:102050007C87ED2003F0B6FC012003F0ADFCFE20F0
:1020600003F0AAFCEE2003F0ADFCDE2003F0A4FC9C
:10207000212003F0A1FCF12003F0A4FC012003F0D7
:102080009BFCDF2003F09EFC102003F095FCC42095
:1020900003F098FC8F2003F08FFCC62003F092FC25
:1020A000002003F089FCE22003F086FCE22003F02C
:1020B00083FCE22003F080FCBF2003F083FCAA2015
:1020C00003F07AFCB02003F07DFC0D2003F074FCDB
:1020D000002003F071FC0D2003F06EFC002003F0E3
:1020E0006BFC112003F068FC002003F065FC192054
:1020F00003F062FC002003F05FFC212003F05CFC95
:10210000002003F059FC2D2003F056FC002003F0C2
:1021100053FC3D2003F050FC002003F04DFC5D20FB
:1021200003F04AFC002003F047FC5D2003F044FC70
:10213000002003F041FCB12003F044FC802003F0B8
:102140003BFC002003F038FC8B2003F035FC002022
:1021500003F032FC962003F02FFC002003F02CFC4F
:10216000B22003F02FFC002003F026FC002003F037
:1021700023FC022003F020FC002003F01DFC0320C0
:1021800003F01AFC002003F017FCB32003F01AFC44
:10219000002003F011FC002003F00EFC002003F0EF
:1021A0000BFC002003F008FC002003F005FC0020DD
:1021B00003F002FC002003F0FFFB002003F0FCFB17
:1021C000002003F0F9FB002003F0F6FB002003F0F1
:1021D000F3FB002003F0F0FB002003F0EDFB0020F8
:1021E00003F0EAFB002003F0E7FB002003F0E4FB30
:1021F000002003F0E1FB002003F0DEFB002003F0F1
:10220000DBFB002003F0D8FB002003F0D5FB00200F
:1022100003F0D2FB002003F0CFFB002003F0CCFB47
:10222000B42003F0CFFB8B2003F0C6FB002003F0AB
:10223000C3FB962003F0C0FB002003F0BDFBA120F0
:1022400003F0BAFB002003F0B7FBB52003F0BAFBA4
:10225000022003F0B1FB002003F0AEFB032003F0EB
:10226000ABFB002003F0A8FB042003F0A5FB00203B
:1022700003F0A2FBB62003F0A5FB002003F09CFBBB
:10228000002003F099FBB72003F09CFB002003F033
:1022900093FB002003F090FB3F2003F08DFB002018
:1022A00003F08AFB5E2003F087FB002003F084FB31
:1022B000642003F081FB002003F07EFB8C2003F000
:1022C0007BFB002003F078FBAC2003F075FB0020C3
:1022D00003F072FBDC2003F06FFB01E0F80100204B
:1022E000002003F069FB702003F066FB002003F080
:1022F00063FB902003F060FB002003F05DFBEB200C
:1023000003F05AFB002003F057FBDC2003F054FBE2
:10231000002003F051FBB82003F054FB002003F031
:102320004BFB002003F048FB002003F045FB00209E
:1023300003F042FB002003F03FFB002003F03CFBD6
:10234000002003F039FB002003F036FBBA2003F035
:1023500039FB242003F030FB002003F02DFB00208C
:1023600003F02AFB002003F027FBC12003F02AFB27
:10237000202003F021FB002003F01EFB542003F07B
:102380001BFB002003F018FBFF2003F015FB0020CF
:1023900003F012FBC22003F015FB0A2003F00CFB34
:1023A000002003F009FB042003F006FB002003F0EB
:1023B00003FBC32003F006FB3C2003F0FDFA0020E2
:1023C00003F0FAFA3A2003F0F7FA002003F0F4FAE7
:1023D000392003F0F1FA002003F0EEFA372003F081
:1023E000EBFA002003F0E8FA3C2003F0E5FA0020C5
:1023F00003F0E2FA362003F0DFFA002003F0DCFA03
:10240000322003F0D9FA002003F0D6FA2F2003F08F
:10241000D3FA002003F0D0FA2C2003F0CDFA0020EC
:1024200003F0CAFA292003F0C7FA002003F0C4FA27
:10243000262003F0C1FA002003F0BEFA242003F0A6
:10244000BBFA002003F0B8FA242003F0B5FA00200C
:1024500003F0B2FA232003F0AFFA002003F0ACFA45
:102460003C2003F0A9FA002003F0A6FA362003F07E
:10247000A3FA002003F0A0FA322003F09DFA002016
:1024800003F09AFA2F2003F097FA002003F094FA51
:102490002C2003F091FA002003F08EFA292003F09B
:1024A0008BFA002003F088FA262003F085FA00203A
:1024B00003F082FA242003F07FFA002003F07CFA74
:1024C000242003F079FA002003F076FA232003F0A9
:1024D00073FA002003F070FAC42003F073FA62204C
:1024E00003F06AFA002003F067FA052003F064FAAB
:1024F000002003F061FA842003F05EFA002003F06C
:102500005BFAF02003F058FA002003F055FA182087
:1025100003F052FA002003F04FFAA42003F04CFA23
:10252000002003F049FA182003F046FA002003F0D7
:1025300043FA502003F040FA002003F03DFA0C204B
:1025400003F03AFA002003F037FA172003F034FAC8
:10255000002003F031FA952003F02EFA002003F05A
:102560002BFAF32003F028FA002003F025FAE620E6
:1025700003F022FA002003F01FFAC52003F022FA2C
:10258000322003F019FA002003F016FA442003F079
:1025900013FA002003F010FA652003F00DFA002072
:1025A00003F00AFA762003F007FA002003F004FA99
:1025B000882003F001FA002003F0FEF9C62003F0A2
:1025C00001FA202003F0F8F9002003F0F5F91720B4
:1025D00003F0F2F9002003F0EFF9012003F0ECF929
:1025E000002003F0E9F9C72003F0ECF9002003F024
:1025F000E3F9002003F0E0F9002003F0DDF900200A
:1026000003F0DAF9C82003F0DDF9002003F0D4F973
:10261000002003F0D1F9002003F0CEF9002003F0F0
:10262000CBF9C92003F0CEF9002003F0C5F9002052
:1026300003F0C2F9002003F0BFF9002003F0BCF959
:10264000002003F0B9F9002003F0B6F9002003F0F0
:10265000B3F9002003F0B0F9002003F0ADF9002039
:1026600003F0AAF9002003F0A7F9002003F0A4F971
:10267000002003F0A1F9002003F09EF9002003F0F0
:102680009BF9002003F098F9E02003F09BF9162055
:1026900003F092F9002003F08FF91C2003F08CF96D
:1026A000002003F089F9212003F086F9002003F0CF
:1026B00083F9362003F080F9002003F07DF94620ED
:1026C00003F07AF9002003F077F9522003F074F94F
:1026D000002003F071F9642003F06EF9002003F08C
:1026E0006BF97A2003F068F9002003F065F98B207C
:1026F00003F062F9002003F05FF9992003F05CF920
:10270000002003F059F9A82003F056F9002003F047
:1027100053F9B92003F050F9002003F04DF9C4201B
:1027200003F04AF9002003F047F9CA2003F044F906
:10273000002003F041F9D22003F03EF9002003F01D
:102740003BF9D92003F038F9002003F035F9E020F7
:1027500003F032F9002003F02FF9F32003F02CF9F5
:10276000002003F029F9E12003F02CF9162003F0F2
:1027700023F9002003F020F91C2003F01DF90020AC
:1027800003F01AF9222003F017F9002003F014F9DE
:10279000362003F011F9002003F00EF9452003F074
:1027A0000BF9002003F008F9522003F005F900208E
:1027B00003F002F9642003F0FFF8002003F0FCF8B6
:1027C0007A2003F0F9F8002003F0F6F88B2003F0EC
:1027D000F3F8002003F0F0F8992003F0EDF8002062
:1027E00003F0EAF8A82003F0E7F8002003F0E4F88B
:1027F000B92003F0E1F8002003F0DEF8C42003F074
:10280000DBF8002003F0D8F8CA2003F0D5F8002048
:1028100003F0D2F8D22003F0CFF8002003F0CCF878
:10282000D82003F0C9F8002003F0C6F8E02003F038
:10283000C3F8002003F0C0F8F32003F0BDF8002037
:1028400003F0BAF8E22003F0BDF8052003F0B4F875
:10285000002003F0B1F80B2003F0AEF8002003F0E5
:10286000ABF81B2003F0A8F8002003F0A5F83420F3
:1028700003F0A2F8002003F09FF8442003F09CF836
:10288000002003F099F84F2003F096F8002003F0A1
:1028900093F8612003F090F8002003F08DF8792080
:1028A00003F08AF8002003F087F8882003F084F80A
:1028B000002003F081F8972003F07EF8002003F059
:1028C0007BF8A62003F078F8002003F075F8B72015
:1028D00003F072F8002003F06FF8C22003F06CF8E8
:1028E000002003F069F8C72003F066F8002003F029
:1028F00063F8D12003F060F8002003F05DF8D620E3
:1029000003F05AF8002003F057F8DD2003F054F8E4
:10291000002003F051F8F32003F04EF8002003F0FC
:102920004BF8E32003F04EF8052003F045F80020B3
:1029300003F042F80A2003F03FF8002003F03CF8CF
:102940001C2003F039F8002003F036F8332003F0A0
:1029500033F8002003F030F8442003F02DF8002075
:1029600003F02AF8502003F027F8002003F024F8A1
:10297000622003F021F8002003F01EF8782003F015
:102980001BF8002003F018F8882003F015F8002049
:1029900003F012F8972003F00FF8002003F00CF872
:1029A000A62003F009F8002003F006F8B72003F092
:1029B00003F8002003F000F8C22002F0FDFF002021
:1029C00002F0FAFFC72002F0F7FF002002F0F4FF48
:1029D000D12002F0F1FF002002F0EEFFD52002F03E
:1029E000EBFF002002F0E8FFDD2002F0E5FF002011
:1029F00002F0E2FFF32002F0DFFF002002F0DCFF34
:102A0000E42002F0DFFF012002F0D6FF002002F0F8
:102A1000D3FF012002F0D0FF002002F0CDFF022002
:102A200002F0CAFF002002F0C7FF2A2002F0C4FF14
:102A3000002002F0C1FF3C2002F0BEFF002002F0A7
:102A4000BBFF4B2002F0B8FF002002F0B5FF5D2075
:102A500002F0B2FF002002F0AFFF742002F0ACFFE2
:102A6000002002F0A9FF842002F0A6FF002002F05F
:102A7000A3FF932002F0A0FF002002F09DFFA22000
:102A800002F09AFF002002F097FFB32002F094FFBB
:102A9000002002F091FFBE2002F08EFF002002F025
:102AA0008BFFC42002F088FF002002F085FFCD20BC
:102AB00002F082FF002002F07FFFD32002F07CFFB3
:102AC000002002F079FFDD2002F076FF002002F006
:102AD00073FFF32002F070FF002002F06DFFE5208D
:102AE00002F070FF002002F067FF002002F064FF98
:102AF000002002F061FF002002F05EFF022002F0E1
:102B00005BFF002002F058FF292002F055FF002053
:102B100002F052FF3C2002F04FFF002002F04CFF79
:102B20004B2002F049FF002002F046FF5D2002F03A
:102B300043FF002002F040FF742002F03DFF002020
:102B400002F03AFF842002F037FF002002F034FF49
:102B5000932002F031FF002002F02EFFA22002F0AD
:102B60002BFF002002F028FFB32002F025FF0020F9
:102B700002F022FFBE2002F01FFF002002F01CFF27
:102B8000C42002F019FF002002F016FFCD2002F051
:102B900013FF002002F010FFD32002F00DFF0020F1
:102BA00002F00AFFDC2002F007FF002002F004FF21
:102BB000F32002F001FF002002F0FEFEE62002F00A
:102BC00001FF112002F0F8FE002002F0F5FE342093
:102BD00002F0F2FE002002F0EFFE562002F0ECFEC2
:102BE000002002F0E9FE762002F0E6FE002002F06E
:102BF000E3FE772002F0E0FE002002F0DDFE66201A
:102C000002F0DAFE002002F0D7FE882002F0D4FEA7
:102C1000002002F0D1FE992002F0CEFE002002F04A
:102C2000CBFEBB2002F0C8FE002002F0C5FE9920BA
:102C300002F0C2FE002002F0BFFE662002F0BCFEE1
:102C4000002002F0B9FE552002F0B6FE002002F08E
:102C5000B3FE552002F0B0FE002002F0ADFE45208C
:102C600002F0AAFE002002F0A7FE432002F0A4FE1C
:102C7000002002F0A1FE442002F09EFE002002F09F
:102C80009BFEE72002F09EFE322002F095FE00201F
:102C900002F092FE552002F08FFE002002F08CFE22
:102CA000762002F089FE002002F086FE662002F007
:102CB00083FE002002F080FE672002F07DFE0020EF
:102CC00002F07AFE672002F077FE002002F074FE28
:102CD000872002F071FE002002F06EFE992002F0C3
:102CE0006BFE002002F068FEBB2002F065FE0020B3
:102CF00002F062FE992002F05FFE002002F05CFE0E
:102D0000772002F059FE002002F056FE442002F027
:102D100053FE002002F050FE562002F04DFE00202F
:102D200002F04AFE232002F047FE002002F044FE9B
:102D3000332002F041FE002002F03EFE452002F06A
:102D40003BFE002002F038FEE82002F03BFE0020AF
:102D500002F032FE002002F02FFE992002F02CFE3D
:102D6000002002F029FE872002F026FE002002F05B
:102D700023FE882002F020FE002002F01DFE7720B6
:102D800002F01AFE002002F017FE662002F014FE88
:102D9000002002F011FE882002F00EFE002002F05A
:102DA0000BFEAA2002F008FE002002F005FEBB2068
:102DB00002F002FE002002F0FFFD992002F0FCFD6F
:102DC000002002F0F9FD662002F0F6FD002002F07E
:102DD000F3FD552002F0F0FD002002F0EDFD55203E
:102DE00002F0EAFD002002F0E7FD442002F0E4FDDD
:102DF000002002F0E1FD442002F0DEFD002002F0A0
:102E0000DBFD552002F0D8FD002002F0D5FDE920C1
:102E100002F0D8FDAA2002F0CFFD002002F0CCFD88
:102E2000002002F0C9FD002002F0C6FD002002F0E3
:102E3000C9FDAA2002F0C0FDCF2002F0C3FD002092
:102E400002F0BAFD002002F0B7FD002002F0B4FD50
:102E5000002002F0B1FD002002F0AEFD002002F0E3
:102E6000ABFD002002F0A8FD002002F0A5FD00202F
:102E700002F0A2FD002002F09FFD002002F09CFD68
:102E8000002002F099FD002002F096FD002002F0E3
:102E900093FD002002F090FD002002F08DFD002047
:102EA00002F08AFDF02002F08DFD002002F084FD8A
:102EB000502002F081FD002002F07EFD002002F093
:102EC0007BFD002002F078FDF32002F07BFD002066
:102ED00002F072FDF92002F075FD062002F06CFD93
:102EE000102002F069FD292002F066FD002002F0AA
:102EF00063FD3A2002F066FD552002F05DFD1120D1
:102F000002F060FD642006F011FC292002F05AFD59
:102F1000352002F057FD002002F04EFD512002F056
:102F200051FDFF2002F048FD532002F04BFD2C2004
:102F300002F042FD552002F045FD822002F03CFDEA
:102F40002C2002F03FFD02F0ECB8FE48808845F2EC
:102F5000105188427ED155214FF4704002F042FD5D
:102F6000AA214FF2010002F03DFD52214FF2020072
:102F700002F038FD08214FF2030002F033FD012179
:102F80004FF2040002F02EFD0D214FF4304002F00C
:102F900029FD0D214BF2010002F024FD0D214BF221
:102FA000020002F01FFD34214FF4364002F01AFDFA
:102FB00034214BF2016002F015FD34214BF2026026
:102FC00002F010FD0D214FF4314002F00BFD0D21F8
:102FD0004BF2011002F006FD0D214BF2021002F03F
:102FE00001FD34214FF4374002F0FCFC34214BF258
:102FF000017002F0F7FC34214BF2027002F0F2FC97
:1030000000214FF4324002F0EDFC00214BF2012090
:1030100002F0E8FC00214BF2022002F0E3FC242144
:103020004FF4384002F0DEFC24214BF6010002F0A0
:10303000D9FC24214BF6020002F0D4FC01214FF40C
:103040003F4002F0CFFC0F214FF4334002F0CAFCA6
:103050000F2100E0FEE34BF2013002F0C3FC0F2130
:103060004BF2023002F0BEFC34214FF4394002F042
:10307000B9FC34214BF6011002F0B4FC34214BF6BC
:10308000021002F0AFFC08214FF4354002F0AAFC18
:1030900008214BF2015002F0A5FC08214BF202502E
:1030A00002F0A0FC03214FF4424002F09BFC2421DB
:1030B0004FF43A4002F096FC24214BF6012002F036
:1030C00091FC24214BF6022002F08CFC00214FF4ED
:1030D0003C4002F087FC78214BF6014002F082FC74
:1030E00000214BF6024002F07DFC00214FF43D40F0
:1030F00002F078FC78214BF6015002F073FC0021BD
:103100004BF6025002F06EFC00214FF43E4002F0FC
:1031100069FC64214BF6016002F064FC00214FF46D
:10312000514002F05FFC33214DF2011002F05AFCD5
:1031300000214DF2021002F055FC34214DF2031033
:1031400002F050FC00214DF2041002F04BFC3A2139
:103150004DF2051002F046FC00214DF2061002F07F
:1031600041FC4A214DF2071002F03CFC00214DF2D7
:10317000081002F037FC5C214DF2091002F032FC1D
:1031800000214DF20A1002F02DFC81214DF20B10AE
:1031900002F028FC00214DF20C1002F023FCA621C5
:1031A0004DF20D1002F01EFC00214DF20E1002F047
:1031B00019FCE5214DF20F1002F014FC01214DF233
:1031C000101002F00FFC13214DF2111002F00AFC56
:1031D00001214DF2121002F005FC54214DF21310A2
:1031E00002F000FC01214DF2141002F0FBFB8221E1
:1031F0004DF2151002F0F6FB01214DF2161002F00F
:10320000F1FBCA214DF2171002F0ECFB02214DF246
:10321000181002F0E7FB00214DF2191002F0E2FB5A
:1032200002214DF21A1002F0DDFB01214DF21B10BC
:1032300002F0D8FB02214DF21C1002F0D3FB342126
:103240004DF21D1002F0CEFB02214DF21E1002F0D5
:10325000C9FB67214DF21F1002F0C4FB02214DF2A1
:10326000201002F0BFFB84214DF2211002F0BAFBC6
:1032700002214DF2221002F0B5FBA4214DF22310E1
:1032800002F0B0FB02214DF2241002F0ABFBB7219B
:103290004DF2251002F0A6FB02214DF2261002F09D
:1032A000A1FBCF214DF2271002F09CFB02214DF231
:1032B000281002F097FBDE214DF2291002F092FB5C
:1032C00002214DF22A1002F08DFBF2214DF22B105B
:1032D00002F088FB02214DF22C1002F083FBFE214C
:1032E0004DF22D1002F07EFB03214DF22E1002F064
:1032F00079FB10214DF22F1002F074FB03214DF2E7
:10330000301002F06FFB33214DF2311002F06AFBF6
:1033100003214DF2321002F065FB6D214DF23310A6
:1033200002F060FB00214FF4524002F05BFB3321BE
:103330004DF2012002F056FB00214DF2022002F076
:1033400051FB01E0F801002034214DF2032002F08E
:1033500049FB00214DF2042002F044FB3A214DF2DA
:10336000052002F03FFB00214DF2062002F03AFB5F
:103370004A214DF2072002F035FB00214DF20820D2
:1033800002F030FB5C214DF2092002F02BFB002102
:103390004DF20A2002F026FB81214DF20B2002F0B3
:1033A00021FB00214DF20C2002F01CFBA6214DF266
:1033B0000D2002F017FB00214DF20E2002F012FB4F
:1033C000E5214DF20F2002F00DFB01214DF21020FE
:1033D00002F008FB13214DF2112002F003FB012142
:1033E0004DF2122002F0FEFA54214DF2132002F0A9
:1033F000F9FA01214DF2142002F0F4FA82214DF283
:10340000152002F0EFFA01214DF2162002F0EAFA3F
:10341000CA214DF2172002F0E5FA02214DF21820E0
:1034200002F0E0FA00214DF2192002F0DBFA02214D
:103430004DF21A2002F0D6FA01214DF21B2002F0C3
:10344000D1FA02214DF21C2002F0CCFA34214DF2C7
:103450001D2002F0C7FA02214DF21E2002F0C2FA2E
:1034600067214DF21F2002F0BDFA02214DF220200B
:1034700002F0B8FA84214DF2212002F0B3FA0221C1
:103480004DF2222002F0AEFAA4214DF2232002F0E8
:10349000A9FA02214DF2242002F0A4FAB7214DF23C
:1034A000252002F09FFA02214DF2262002F09AFA1E
:1034B000CF214DF2272002F095FA02214DF228206B
:1034C00002F090FADE214DF2292002F08BFA02215F
:1034D0004DF22A2002F086FAF2214DF22B2002F062
:1034E00081FA02214DF22C2002F07CFAFE214DF2ED
:1034F0002D2002F077FA03214DF22E2002F072FA0D
:1035000010214DF22F2002F06DFA03214DF23020F0
:1035100002F068FA33214DF2312002F063FA032100
:103520004DF2322002F05EFA6D214DF2332002F0AE
:1035300059FA00214FF4534002F054FA33214DF26E
:10354000013002F04FFA00214DF2023002F04AFA47
:1035500034214DF2033002F045FA00214DF20430DF
:1035600002F040FA3A214DF2053002F03BFA002118
:103570004DF2063002F036FA4A214DF2073002F0E1
:1035800031FA00214DF2083002F02CFA5C214DF2A4
:10359000093002F027FA00214DF20A3002F022FA37
:1035A00081214DF20B3002F01DFA00214DF20C305A
:1035B00002F018FAA6214DF20D3002F013FA0021A4
:1035C0004DF20E3002F00EFAE5214DF20F3002F00E
:1035D00009FA01214DF2103002F004FA13214DF2E4
:1035E000113002F0FFF901214DF2123002F0FAF928
:1035F00054214DF2133002F0F5F901214DF214304F
:1036000002F0F0F982214DF2153002F0EBF90121C0
:103610004DF2163002F0E6F9CA214DF2173002F0F1
:10362000E1F902214DF2183002F0DCF900214DF2EF
:10363000193002F0D7F902214DF21A3002F0D2F916
:1036400001214DF21B3002F0CDF902214DF21C3068
:1036500002F0C8F934214DF21D3002F0C3F9022105
:103660004DF21E3002F0BEF967214DF21F3002F01C
:10367000B9F902214DF2203002F0B4F984214DF263
:10368000213002F0AFF902214DF2223002F0AAF906
:10369000A4214DF2233002F0A5F902214DF224308D
:1036A00002F0A0F9B7214DF2253002F09BF902217A
:1036B0004DF2263002F096F9CF214DF2273002F07C
:1036C00091F902214DF2283002F08CF9DE214DF201
:1036D000293002F087F902214DF22A3002F082F9F6
:1036E000F2214DF22B3002F07DF902214DF22C3007
:1036F00002F078F9FE214DF22D3002F073F903212A
:103700004DF22E3002F06EF910214DF22F3002F002
:1037100069F903214DF2303002F064F933214DF2A2
:10372000313002F05FF903214DF2323002F05AF9E4
:103730006D214DF2333002F055F900214FF4544021
:1037400002F050F933214DF2014002F04BF9002113
:103750004DF2024002F046F934214DF2034002F0EE
:1037600041F900214DF2044002F03CF93A214DF2BA
:10377000054002F037F900214DF2064002F032F91F
:103780004A214DF2074002F02DF900214DF2084088
:1037900002F028F95C214DF2094002F023F90021E2
:1037A0004DF20A4002F01EF981214DF20B4002F069
:1037B00019F900214DF20C4002F014F9A6214DF246
:1037C0000D4002F00FF900214DF20E4002F00AF90F
:1037D000E5214DF20F4002F005F901214DF21040B4
:1037E00002F000F913214DF2114002F0FBF8012123
:1037F0004DF2124002F0F6F854214DF2134002F05F
:10380000F1F801214DF2144002F0ECF882214DF262
:10381000154002F0E7F801214DF2164002F0E2F8FF
:10382000CA214DF2174002F0DDF802214DF2184096
:1038300002F0D8F800214DF2194002F0D3F802212D
:103840004DF21A4002F0CEF801214DF21B4002F079
:10385000C9F800E004E302214DF21C4002F0C2F876
:1038600034214DF21D4002F0BDF802214DF21E4000
:1038700002F0B8F867214DF21F4002F0B3F80221C0
:103880004DF2204002F0AEF884214DF2214002F0CA
:10389000A9F802214DF2224002F0A4F8A4214DF231
:1038A000234002F09FF802214DF2244002F09AF8E2
:1038B000B7214DF2254002F095F802214DF2264045
:1038C00002F090F8CF214DF2274002F08BF8022150
:1038D0004DF2284002F086F8DE214DF2294002F038
:1038E00081F802214DF22A4002F07CF8F2214DF2DB
:1038F0002B4002F077F802214DF22C4002F072F8D2
:10390000FE214DF22D4002F06DF803214DF22E40C4
:1039100002F068F810214DF22F4002F063F8032105
:103920004DF2304002F05EF833214DF2314002F0AA
:1039300059F803214DF2324002F054F86D214DF256
:10394000334002F04FF800214FF4554002F04AF89E
:1039500033214DF2015002F045F800214DF20250A2
:1039600002F040F834214DF2035002F03BF8002100
:103970004DF2045002F036F83A214DF2055002F0B3
:1039800031F800214DF2065002F02CF84A214DF298
:10399000075002F027F800214DF2085002F022F8FB
:1039A0005C214DF2095002F01DF800214DF20A5041
:1039B00002F018F881214DF20B5002F013F80021AB
:1039C0004DF20C5002F00EF8A6214DF20D5002F00F
:1039D00009F800214DF20E5002F004F8E5214DF2F5
:1039E0000F5001F0FFFF01214DF2105001F0FAFFDE
:1039F00013214DF2115001F0F5FF01214DF212504B
:103A000001F0F0FF54214DF2135001F0EBFF0121C2
:103A10004DF2145001F0E6FF82214DF2155001F0F5
:103A2000E1FF01214DF2165001F0DCFFCA214DF2F9
:103A3000175001F0D7FF02214DF2185001F0D2FFCC
:103A400000214DF2195001F0CDFF02214DF21A5024
:103A500001F0C8FF01214DF21B5001F0C3FF02210C
:103A60004DF21C5001F0BEFF34214DF21D5001F00B
:103A7000B9FF02214DF21E5001F0B4FF67214DF253
:103A80001F5001F0AFFF02214DF2205001F0AAFFBC
:103A900084214DF2215001F0A5FF02214DF2225068
:103AA00001F0A0FFA4214DF2235001F09BFF022161
:103AB0004DF2245001F096FFB7214DF2255001F050
:103AC00091FF02214DF2265001F08CFFCF214DF2E3
:103AD000275001F087FF02214DF2285001F082FFAC
:103AE000DE214DF2295001F07DFF02214DF22A50D6
:103AF00001F078FFF2214DF22B5001F073FF02210B
:103B00004DF22C5001F06EFFFE214DF22D5001F0D0
:103B100069FF03214DF22E5001F064FF10214DF298
:103B20002F5001F05FFF03214DF2305001F05AFF9A
:103B300033214DF2315001F055FF03214DF2325047
:103B400001F050FF6D214DF2335001F04BFF002189
:103B50004FF4564001F046FF33214DF2016001F071
:103B600041FF00214DF2026001F03CFF34214DF293
:103B7000036001F037FF00214DF2046001F032FFD5
:103B80003A214DF2056001F02DFF00214DF2066053
:103B900001F028FF4A214DF2076001F023FF0021C8
:103BA0004DF2086001F01EFF5C214DF2096001F04A
:103BB00019FF00214DF20A6001F014FF81214DF23E
:103BC0000B6001F00FFF00214DF20C6001F00AFFC5
:103BD000A6214DF20D6001F005FF00214DF20E60AF
:103BE00001F000FFE5214DF20F6001F0FBFE012125
:103BF0004DF2106001F0F6FE13214DF2116001F05C
:103C0000F1FE01214DF2126001F0ECFE54214DF263
:103C1000136001F0E7FE01214DF2146001F0E2FEB5
:103C200082214DF2156001F0DDFE01214DF216609A
:103C300001F0D8FECA214DF2176001F0D3FE022137
:103C40004DF2186001F0CEFE00214DF2196001F036
:103C5000C9FE02214DF21A6001F0C4FE01214DF2AD
:103C60001B6001F0BFFE02214DF21C6001F0BAFEA4
:103C700034214DF21D6001F0B5FE02214DF21E60AF
:103C800001F0B0FE67214DF21F6001F0ABFE022192
:103C90004DF2206001F0A6FE84214DF2216001F07A
:103CA000A1FE02214DF2226001F09CFEA4214DF202
:103CB000236001F097FE02214DF2246001F092FE94
:103CC000B7214DF2256001F08DFE02214DF22660F4
:103CD00001F088FECF214DF2276001F083FE022122
:103CE0004DF2286001F07EFEDE214DF2296001F0E8
:103CF00079FE02214DF22A6001F074FEF2214DF2AC
:103D00002B6001F06FFE02214DF22C6001F06AFE83
:103D1000FE214DF22D6001F065FE03214DF22E6073
:103D200001F060FE10214DF22F6001F05BFE0321D7
:103D30004DF2306001F056FE33214DF2316001F05A
:103D400051FE03214DF2326001F04CFE6D214DF227
:103D5000336001F047FE55214FF4704001F042FE00
:103D6000AA214FF2010001F03DFE52214FF2020064
:103D700001F038FE08214FF2030001F033FE00216C
:103D80004FF2040001F02EFECC214FF4314001F03F
:103D900029FE00214BF2011001F024FE05214FF411
:103DA000364001F01FFE70214FF4374001F01AFE3B
:103DB00070214BF2017001F015FE01214FF43840E3
:103DC00001F010FE03214BF6010001F00BFE032170
:103DD0004BF6020001F006FE03214BF6030001F052
:103DE00001FE02214FF43C4001F0FCFD00214BF6A6
:103DF000014001F0F7FD00214BF6024001F0F2FD19
:103E0000D0214FF4494001F0EDFD02214CF60110A4
:103E100001F0E8FD50214CF6021001F0E3FD5021C5
:103E20004CF6031001F0DEFD50214CF6041001F0B9
:103E3000D9FD00214FF4545001F0D4FD55214FF429
:103E4000685001F0CFFD4FF4885001F0BBFD7820A1
:103E500005F09CFC4FF4245001F0B4FD01F061B971
:103E6000FE48808849F2253188427DD147F6F0012D
:103E7000E52001F0B7FD4FF48071012001F0B2FDA3
:103E80004FF4E061022001F0ADFD41F2300103206A
:103E900001F0A8FD0021042001F0A4FD40F2022160
:103EA000082001F09FFD0021092001F09BFD002169
:103EB0000A2001F097FD00210C2001F093FD002164
:103EC0000D2001F08FFD00210F2001F08BFD00215E
:103ED000102001F087FD0721112001F083FD002152
:103EE000122001F07FFD0021132001F07BFD002155
:103EF000072001F077FD41F29061102001F072FD82
:103F000040F22721112001F06DFD9D21122001F0CA
:103F100069FD4FF4C851132001F064FD25212920CB
:103F200001F060FD0D212B2001F05CFD0721302008
:103F300001F058FD40F20331312001F053FD03211F
:103F4000322001F04FFD40F20621352001F04AFDFC
:103F50000821362001F046FD40F20641372001F0ED
:103F600041FD4FF4417100E058E0382001F03AFD86
:103F70000721392001F036FD40F202613C2001F0BA
:103F800031FD08213D2001F02DFD0021502001F0E0
:103F900029FDEF21512001F025FD0021522001F0E3
:103FA00021FD40F23F11532001F01CFD4FF4274149
:103FB000602001F017FD0121612001F013FD0021B7
:103FC0006A2001F00FFD0021802001F00BFD00218F
:103FD000812001F007FD0021822001F003FD002176
:103FE000832001F0FFFC0021842001F0FBFC002174
:103FF000852001F0F7FC1021902001F0F3FC4FF434
:10400000C061922001F0EEFC40F23311072001F074
:10401000E9FC2221002001F0E5FC1FE78F488088A1
:1040200049F2283188427DD141F28F01EC2001F024
:10403000D9FC41F23421EF2001F0D4FC4FF480711F
:10404000012001F0CFFC4FF4E061022001F0CAFC36
:1040500041F23001032001F0C5FC0021042001F0F1
:10406000C1FC40F20221082001F0BCFC0021092023
:1040700001F0B8FC00210A2001F0B4FC01210C2061
:1040800001F0B0FC00210D2001F0ACFC00210F205C
:1040900001F0A8FC0021102001F0A4FC0721112050
:1040A00001F0A0FC0021122001F09CFC0021132053
:1040B00001F098FC0121072001F094FC322005F06A
:1040C00035FB41F29041102001F08CFC40F2272199
:1040D000112001F087FC322005F028FB8A211220F4
:1040E00001F080FC322005F021FB4FF4D051132069
:1040F00001F078FC0621292001F074FC0D212B2011
:1041000001F070FC322005F011FB0021202001F0AD
:1041100069FC0021212001F065FC322005F006FB3E
:10412000002100E075E0302001F05CFC40F2046109
:10413000312001F057FC40F20531322001F052FCF1
:104140000021352001F04EFC40F60941362001F0F7
:1041500049FC4FF40171372001F044FC40F2013179
:10416000382001F03FFC40F20771392001F03AFCA1
:1041700000213C2001F036FC40F60A213D2001F0F0
:1041800031FC322005F0D2FA0021502001F02AFC47
:10419000EF21512001F026FC0021522001F022FCE9
:1041A00040F23F11532001F01DFC4FF427416020E5
:1041B00001F018FC0121612001F014FC00216A20AB
:1041C00001F010FC0021802001F00CFC0021812076
:1041D00001F008FC0021822001F004FC0021832072
:1041E00001F000FC0021842001F0FCFB002185206F
:1041F00001F0F8FB1021902001F0F4FB4FF4C061B6
:10420000922001F0EFFB40F23311072001F0EAFBAE
:1042100024E61248808849F2203188427ED100216C
:10422000084601F0DFFB4FF48071012001F0DAFB5A
:104230004FF4E061022001F0D5FB41F23001032090
:1042400001F0D0FB0021042001F0CCFB40F2022160
:10425000082001F0C7FB0021092001E0F80100203F
:1042600001F0C0FB00210A2001F0BCFB01210C2061
:1042700001F0B8FB00210D2001F0B4FB00210F205C
:1042800001F0B0FB322005F051FA40F20111072095
:1042900001F0A8FB322005F049FA4FF486511020B6
:1042A00001F0A0FB0721112001F09CFB4FF4887165
:1042B000122001F097FB4FF43061132001F092FBC4
:1042C0000021292001F08EFB44F210012B2001F087
:1042D00089FB0021502001F085FBEF21512001F0E6
:1042E00081FB0021522001F07DFB40F23F11532061
:1042F00001F078FB4FF41C51602001F073FB0121A9
:10430000612001F06FFB00216A2001F06BFB0021AE
:10431000802001F067FB0021812000E030E001F007
:1043200061FB0021822001F05DFB0021832001F070
:1043300059FB0021842001F055FB0021852001F06C
:1043400051FB1021902001F04DFB0021922001F043
:1043500049FB0121932001F045FB4FF48871952022
:1043600001F040FB0021972001F03CFB0021982048
:1043700001F038FB40F27311072001F033FB6DE5CB
:10438000FE48808849F2313188427DD141F21401E2
:10439000E72001F027FB4FF48071012001F022FBA0
:1043A0004FF40071022001F01DFB41F2380103209F
:1043B00001F018FB40F20221082001F013FB00215C
:1043C000092001F00FFB00210A2001F00BFB002166
:1043D0000C2001F007FB00210D2001F003FB002160
:1043E0000F2001F0FFFA0021102001F0FBFA072155
:1043F000112001F0F7FA0021122001F0F3FA002158
:10440000132001F0EFFAC82005F090F941F2906115
:10441000102001F0E7FA40F22721112001F0E2FA22
:10442000322005F083F90C21122001F0DBFA322052
:1044300005F07CF94FF40061132001F0D3FA11214B
:10444000292001F0CFFA0B212B2001F0CBFA3220EA
:1044500005F06CF90021202001F0C4FA40F23F1170
:10446000212001F0BFFA0021302001F0BBFA4FF407
:104470008371312001F0B6FA0021322001F0B2FA46
:104480004FF40171352000E064E001F0ABFA41F235
:104490000A61362001F0A6FA40F20771372001F0D8
:1044A000A1FA4FF48371382001F09CFA40F20771B1
:1044B000392001F097FA40F202413C2001F092FAD3
:1044C00040F60F413D2001F08DFA0021502001F00F
:1044D00089FAEF21512001F085FA0021522001F0E4
:1044E00081FA40F23F11532001F07CFA4FF41C5145
:1044F000602001F077FA0121612001F073FA0021B8
:104500006A2001F06FFA0021802001F06BFA00218F
:10451000812001F067FA0021822001F063FA002176
:10452000832001F05FFA0021842001F05BFA002172
:10453000852001F057FA1021902001F053FA4FF432
:10454000C061922001F04EFA40F23311072001F0D1
:1045500049FA83E48948808845F2084188427DD140
:104560004FF48071012001F03DFA4FF4E061022028
:1045700001F038FA41F23001032001F033FA002152
:10458000042001F02FFA40F20721082001F02AFA56
:104590000021092001F026FA00210A2001F022FA68
:1045A00000210C2001F01EFA00210D2001F01AFA62
:1045B00000210F2001F016FA142005F0B7F841F29F
:1045C000B061102001F00EFA0121112001F00AFA69
:1045D0000121172001F006FA4FF49C71122001F01E
:1045E00001FA4FF40061132001F0FCF909212920A0
:1045F00001F0F8F909212A2001F0F4F90021A420A2
:1046000001F0F0F90021502001F0ECF9EF215120E8
:1046100001F0E8F90021522001F0E4F940F23F11E5
:10462000532001F0DFF94FF41C51602001F0DAF95A
:104630000121612001F0D6F900216A2001F0D2F9B0
:104640000021802001F0CEF90021812001F0CAF97B
:104650000021822001F0C6F9002100E024E083203F
:1046600001F0C0F90021842001F0BCF9002185206F
:1046700001F0B8F91321902001F0B4F90021922043
:1046800001F0B0F90321932001F0ACF94FF48871E7
:10469000952001F0A7F940F27311072001F0A2F96B
:1046A000322005F043F8B8E43448808841F20551DF
:1046B00088427DD10021072001F094F9322005F0D5
:1046C00035F84FF48E71122001F08CF90121A420ED
:1046D00001F088F90F21082001F084F908210A204F
:1046E00001F080F908210D2001F07CF940F20771FA
:1046F000302001F077F90721312001F073F940F201
:104700000361322001F06EF94FF4E061332001F0D3
:1047100069F940F20221342001F064F902213520C8
:1047200001F060F941F60F71362001F05BF940F2BB
:104730000771372001F056F90021382001F052F9B5
:104740000021392001F04EF940F207713A2001F0C2
:1047500049F900213B2001F045F907213C2001F0F7
:1047600041F900213D2001F03DF9322004F0DEFF47
:104770000121072001F036F9012101E0F8010020B4
:10478000172001F02FF9322004F0D0FF4FF4BD5173
:10479000102001F027F940F21721112001F022F931
:1047A0004FF48F71122001F01DF94FF4706100E099
:1047B00098E0132001F016F900212A2001F012F9E7
:1047C0000A21292001F00EF94FF49F71122001F007
:1047D00009F90021502001F005F9EF21512001F0E5
:1047E00001F90021522001F0FDF840F23F11532061
:1047F00001F0F8F84FF41C51602001F0F3F80121AA
:10480000612001F0EFF800216A2001F0EBF80021AF
:10481000802001F0E7F80021812001F0E3F8002179
:10482000822001F0DFF80021832001F0DBF8002175
:10483000842001F0D7F80021852001F0D3F813215E
:10484000902001F0CFF84FF44071922001F0CAF8A7
:104850000521932001F0C6F80021952001F0C2F84F
:104860000021972001F0BEF80021982001F0BAF84D
:104870004FF48071012001F0B5F84FF4E06102209F
:1048800001F0B0F841F23801032001F0ABF800214B
:10489000042001F0A7F800210C2001F0A3F800216A
:1048A0000F2001F09FF80021202001F09BF800214B
:1048B000212001F097F82121072001F093F814201E
:1048C00004F034FF6121072001F08CF8142004F07B
:1048D0002DFF40F27311072001F084F8142004F03A
:1048E00025FF95E4FE4880884BF2055188427CD133
:1048F0000021084601F076F80021084601F072F820
:104900000021084601F06EF80021084601F06AF81F
:104910000121A42001F066F8142004F007FF4FF4F1
:104920001C51602001F05EF840F20221082001F0E5
:1049300059F84FF40571302001F054F843F2157125
:10494000312001F04FF840F20461322001F04AF8C2
:1049500040F61661332001F045F842F2112134206F
:1049600001F040F84FF4A851352001F03BF848F22F
:104970000751362001F036F841F20741372001F0A7
:1049800031F841F20341382001F02CF82021392080
:1049900001F028F81A21902001F024F800211020BD
:1049A00001F020F80721112001F01CF8002112204D
:1049B00001F018F80021132001F014F8142004F07D
:1049C000B5FE4FF4E661102001F00CF840F237110B
:1049D000112001F007F8142004F0A8FE4FF4DC7158
:1049E000122000F0FFFF142000E085E004F09EFE9E
:1049F0004FF47061132000F0F5FF80212A2000F0B1
:104A0000F1FF4821292000F0EDFF142004F08EFE74
:104A10004FF48071012000F0E5FF4FF4E0610220C7
:104A200000F0E0FF41F23801032000F0DBFF40F22C
:104A30000221082000F0D6FF00210A2000F0D2FF5A
:104A400000210C2000F0CEFF00210D2000F0CAFF55
:104A500030210E2000F0C6FF0021502000F0C2FFE0
:104A6000EF21512000F0BEFF0021522000F0BAFFDC
:104A700040F23F11532000F0B5FF4FF41C5160206D
:104A800000F0B0FF0121612000F0ACFF00216A209E
:104A900000F0A8FF1121902000F0A4FF4FF4C061A6
:104AA000922000F09FFF40F20241932000F09AFF15
:104AB0000221942000F096FF142004F037FE01211B
:104AC000072000F08FFF142004F030FE6121072042
:104AD00000F088FF40F27311072000F083FF0021EF
:104AE000202000F07FFF0021212000F07BFF222109
:104AF000002000F077FF14E3794880884CF20551DC
:104B000088427CD10021084600F06CFF0021084655
:104B100000F068FF142004F009FE0021084600F0B0
:104B200061FF0021084600F05DFF0021084600F00B
:104B300059FF0021084600F055FF0121A42000F094
:104B400051FF142004F0F2FD4FF41C51602000F0DE
:104B500049FF40F60601082000F044FF40F20371CF
:104B6000302000F03FFF0121312000F03BFF042105
:104B7000322000F037FF4FF48171332000F032FF14
:104B80004FF44071342000F02DFF40F20311352026
:104B900000F028FF1F21362000F024FF40F20371AF
:104BA000372000F01FFF0121382000F01BFF0421F7
:104BB000392000F017FF1521902000F013FF4FF46B
:104BC0008261102000F00EFF40F24721112000F01A
:104BD00009FF4FF4DE71122000F004FF4FF4606112
:104BE000132000F0FFFE782004F0A0FD4FF4807148
:104BF000012000F0F7FE4FF40071022000E052E0C7
:104C000000F0F0FE41F23001032000F0EBFE08213D
:104C10000A2000F0E7FE00210C2000F0E3FE202136
:104C20000E2000F0DFFE00210F2000F0DBFE00214F
:104C3000202000F0D7FE0021212000F0D3FE3D21EE
:104C40002A2000F0CFFE142004F070FD2D21292031
:104C500000F0C8FE0021502000F0C4FE4DF2EF012C
:104C6000512000F0BFFE0021522000F0BBFE40F2B8
:104C70003F11532000F0B6FE0021612000F0B2FE8B
:104C800000216A2000F0AEFE4FF44071922000F047
:104C9000A9FE0521932000F0A5FE4FF480710720A6
:104CA00000F0A0FE3DE20E48808848F68911884257
:104CB0007ED10121002000F095FE4AF6A4010320D8
:104CC00000F090FE00210C2000F08CFE40F60C015C
:104CD0000D2000F087FE4FF42C510E2002E0000062
:104CE000F801002000F07EFEB0211E2000F07AFEC8
:104CF00042F63F31012000F075FE4FF4C061022002
:104D000000F070FE0021102000F06CFE46F27801E9
:104D1000112000F067FE0021052000F063FE002155
:104D2000062000F05FFE4EF61C71162000F05AFEC1
:104D30000321172000F056FE40F23321072000F037
:104D400051FE00210B2000F04DFE00210F2000F04D
:104D500049FE0021412000F045FE0021422000F0E4
:104D600041FE0021482000F03DFE40F23F11492065
:104D700000F038FE00214A2000F034FE00214B20D4
:104D800000F030FE4FF46F41442000F02BFE002174
:104D9000452000F027FE40F23F11462000F022FEA1
:104DA00040F20771302000F01DFE4FF4017100E069
:104DB00040E0312000F016FE4FF40171322000F087
:104DC00011FE40F20251332000F00CFE40F2075178
:104DD000342000F007FE4FF40171352000F002FE90
:104DE0004FF40171362000F0FDFD40F202513720F2
:104DF00000F0F8FD40F202313A2000F0F3FD40F2FD
:104E000002313B2000F0EEFD0021232000F0EAFDFE
:104E10000021242000F0E6FD4FF40041252000F0A1
:104E2000E1FD00214F2000F0DDFD00214E2000F0CB
:104E3000D9FD76E1C148808844F2315188427DD164
:104E40000121002000F0CEFD0A2004F06FFC41F2A9
:104E50002861102000F0C6FD0E21122000F0C2FDD6
:104E600040F63921132000F0BDFD0A2004F05EFC5D
:104E70004021112000F0B6FD5021152000F0B2FDB8
:104E80000A2004F053FC1E21122000F0ABFD0A2082
:104E900004F04CFC4FF4B151102000F0A3FD42F699
:104EA0003921132000F09EFD0A2004F03FFC4FF44E
:104EB0008071012000F096FD4FF44071022000F057
:104EC00091FD41F23801032000F08CFD40F20221F7
:104ED000082000F087FD08210A2000F083FD002152
:104EE000302000F07FFD40F20241312000F07AFDD9
:104EF0004FF48371322000F075FD40F203513320EE
:104F000000F070FD4FF48271342000F06BFD40F230
:104F10000131352000F066FD40F20771362000F0C7
:104F200061FD40F20531372000F05CFD4FF4027165
:104F3000382000F057FD40F60B7100E03CE03920CE
:104F400000F050FD0221412000F04CFD4FF41C51B7
:104F5000602000F047FD0121612000F043FD4FF487
:104F60000471902000F03EFD4FF48571922000F016
:104F700039FD0421932000F035FD4FF48071A0200D
:104F800000F030FD0121072000F02CFD2121072039
:104F900000F028FD2321072000F024FD3321072005
:104FA00000F020FD40F23311072000F01BFD00212E
:104FB000A02000F017FDB4E06048808844F235512D
:104FC0008842F8D13021152000F00CFD10219A20E4
:104FD00000F008FD2021112000F004FD43F22841DB
:104FE000102000F0FFFC0221122000F0FBFC41F237
:104FF0003801132000F0F6FC282004F097FB122162
:10500000084600F0EFFC282004F090FB43F220411A
:10501000102000F0E7FC43F23801132000F0E2FC1E
:10502000462004F083FB0021302000F0DBFC40F23E
:105030000241312000F0D6FC40F20731322000F06E
:10504000D1FC4FF44171332000F0CCFC042134201A
:1050500000F0C8FC40F20141352000F0C3FC40F2F2
:105060000771362000F0BEFC40F20531372000F019
:10507000B9FC4FF4C261382000F0B4FC4FF4C261B7
:10508000392000F0AFFC4FF48071012000F0AAFC41
:105090004FF44071022000F0A5FC41F230010320E2
:1050A00000F0A0FC40F60801082000F09BFC08215D
:1050B0000A2000F097FC4FF41C51602000F092FC95
:1050C0000121612000F08EFC4FF49F71902000F0D0
:1050D00089FC4FF48071922000F084FC4FF48071C1
:1050E000932000F07FFC4FF44051A02000F07AFCA8
:1050F0001021A32000F076FC0121072000F072FCB3
:105100002121072000F06EFC2321072000F06AFC1B
:105110003321072000F066FC40F23311072000F035
:1051200061FC0020FCF7B4FA0020054908604FF646
:10513000FF70FCF777FA1FB000BD0000F8010020F7
:105140008081214201480088704700000008006CFF
:105150002DE9F04105460E4600240027A04654489C
:105160000088A84203DD52484088B04202DC00209B
:10517000BDE8F0813146284600F00EFA4C488088A0
:1051800049F2413188420BD04948808846F60401F3
:10519000884205D04648808845F21031884203D1C4
:1051A0002E2000F00FFC0DE04148808845F21051A0
:1051B000884204D14FF4385000F004FC02E0222071
:1051C00000F000FC3A48808849F22031884202D140
:1051D000022008F03FFD3748008800B1002402207B
:1051E00008F038FD334804883148808849F241315D
:1051F00088420BD02E48808845F21031884205D075
:105200002B48808845F2105188420BD1022008F0CB
:1052100021FD2848B0F80080E7B24FF6FF7000EAA1
:10522000072707E02248808846F60401884201D11A
:10523000204804881E48808849F22531884216D0CB
:105240001B48808844F23551884210D01848808825
:10525000091F88420BD01648808848F68911884279
:1052600005D0134880884BF20551884201D1204671
:105270007EE70F48808849F2413188420BD00C48C4
:10528000808845F21031884205D00948808845F26F
:105290001051884207D1E012C002B91240EA411011
:1052A00040EAE82064E72046FCF7AEF960E700003A
:1052B000F80100200008006C10B50446204600F0FC
:1052C00081FB052004F062FAFFF73CFF10BD0000EF
:1052D00070B5044600230026AE48807901281ED10F
:1052E000AC48808846F60401884218D0082C15D2B4
:1052F000DFE804F00406080A0C0E101206240DE084
:1053000007240BE0042409E0052407E0012405E05C
:10531000002403E0032401E0022400BF00BF9D48F5
:10532000808849F24131884211D09A48808846F6F7
:10533000040188420BD09748808845F2103188429A
:1053400005D09448808845F2105188427ED1082CBF
:105350001CD2DFE804F00406090C0F12151800BF78
:1053600014E043F0800311E043F040030EE043F00B
:10537000C0030BE043F0200308E043F0600305E0C6
:1053800043F0A00302E043F0E00300BF00BF814808
:10539000808845F21051884202D14FF4585600E0FF
:1053A00036267C48808845F21031884207D07948FB
:1053B000808845F21051884201D043F008037548B7
:1053C000808846F60401884201D143F00203194661
:1053D000304600F007FB03F0200018B96D488079D3
:1053E00001280DD16B4800886A494988884214DA3F
:1053F00068480588408867490880084645800CE071
:105400006448008863494988884206DD6148058808
:10541000408860490880084645805E48808845F29B
:105420001051884254D15B49488900F0CBFA0020E2
:1054300000F0C2FA57494989491C88B200F0C2FA03
:10544000002000F0B9FA5349498900E06FE0891C57
:1054500088B200F0B7FA4F490988491EC1F30F20FE
:1054600000F0AAFA4B494989C91C88B200F0AAFA8F
:1054700048490978491EC8B200F09EFA4549888912
:1054800000F0A0FA002000F097FA42498989491CEF
:1054900088B200F097FA002000F08EFA3D49898921
:1054A000891C88B200F08EFA3A494988491EC1F336
:1054B0000F2000F081FA37498989C91C88B200F0B1
:1054C00081FA34498978491EC8B200F075FA60E063
:1054D0003049488900F076FA002000F06DFA00208B
:1054E00000F06AFA2B490988491EC1F30F2000F029
:1054F00063FA28490978491EC8B200F05DFA2549C7
:10550000888900F05FFA002000F056FA002000F0D1
:1055100053FA20494988491EC1F30F2000F04CFA84
:105520001C498978491EC8B200F046FA31E0082CBF
:105530001CD2DFE804F004070A0D0F12151843F01F
:10554000300313E043F0100310E043F020030DE0BC
:1055500000BF0BE043F0380308E043F0280305E008
:1055600043F0180302E043F0080300BF00BF0948FE
:10557000808848F68911884204D1112646F24000FD
:10558000034302E0032643F480531946304600F0FB
:1055900029FA70BDF801002010B503460C464048BA
:1055A000808849F24131884205D03D48808845F2E3
:1055B0001031884214D13A49488900F003FA181290
:1055C00000F0FAF9D8B200F0F7F93549888900F00F
:1055D000F9F9201200F0F0F9E0B200F0EDF95DE029
:1055E0002F48808846F6040188421DD12C488079D6
:1055F000012804D12A480088401EC01A83B22849D5
:10560000488900F0DFF9181200F0D6F9D8B200F09E
:10561000D3F92349888900F0D5F9201200F0CCF99C
:10562000E0B200F0C9F939E01D48808845F2105118
:10563000884220D11A49488900F0C4F9181200F0B4
:10564000BBF917494989491C88B200F0BBF9D8B2A7
:1056500000F0B2F91249888900F0B4F9201200F084
:10566000ABF90F498989491C88B200F0ABF9E0B267
:1056700000F0A2F912E00A488079012804D1084814
:105680000088401EC01A83B205494889194600F0B7
:10569000A9F903498889214600F0A4F910BD00004A
:1056A000F80100202DE9FF4F04460D4616461F461F
:1056B000A019401E86B2E819401E87B26348808850
:1056C00049F2413188420BD06048808845F2103160
:1056D000884205D05D48808846F60401884220D182
:1056E0005A49488900F06EF9201200F065F9E0B2DD
:1056F00000F062F9301200F05FF9F0B200F05CF9EE
:105700005249888900F05EF9281200F055F9E8B294
:1057100000F052F9381200F04FF9F8B200F04CF9ED
:1057200091E04A48808845F21051884244D1474967
:10573000488900F047F9201200F03EF943494989B1
:10574000491C88B200F03EF9E0B200F035F93F495B
:105750004989891C88B200F035F9301200F02CF923
:105760003A494989C91C88B200F02CF9F0B200F01E
:1057700023F93649888900F025F9281200F01CF930
:1057800032498989491C88B200F01CF9E8B200F05E
:1057900013F92E498989891C88B200F013F938124F
:1057A00000F00AF929498989C91C88B200F00AF970
:1057B000F8B200F001F946E02448807901280ED1C2
:1057C000A846B94621480088801B401E80B201903F
:1057D0001E480088001B401E80B2009003E0A046D7
:1057E000B146019500971948808848F6891188428A
:1057F0000DD14FF0440A4FF0440B48EA09201FFA3C
:1058000080F8C146452003904620029007E04FF003
:10581000500A4FF0510B5220039053200290414602
:10582000504600F0DFF84946584600F0DBF8019991
:10583000039800F0D7F80099029800F0D3F82946B1
:105840002046FFF7A9FEBDE8FF8F0000F801002009
:105850002DE9F84F05460F4690461E4600975148E1
:10586000B0F80090A8F1200000F0FF080A98002886
:105870004ED1002449E00C2E07D108EB48004A49DC
:1058800001EB800010F804A004E0484800EB081089
:1058900010F804A04FF0000B31E00AF0800018B1BE
:1058A0004048A0F8009003E0414800883D49088046
:1058B00039462846FBF7C0FF4FEA4A604FEA106AB4
:1058C000781C87B23B480088A84204DC3548A0F821
:1058D0000090BDE8F88F0098381AB0420BD1009FB5
:1058E000681C85B233480088A84203DC2D48A0F824
:1058F0000090EEE706E00BF1010000F0FF0BBBF1BA
:10590000080FCADB00BF601CC4B2B442B3DB44E082
:10591000002440E00C2E07D108EB4800224901EB9F
:10592000800010F804A004E0204800EB081010F8F4
:1059300004A04FF0000B28E00AF0800018B13946AF
:105940002846FBF779FF4FEA4A604FEA106A781C55
:1059500087B218484088A84203DC1248A0F800909B
:10596000B7E70098381AB0420BD1009F681C85B287
:1059700010480088A84203DC0A48A0F80090A8E775
:1059800006E00BF1010000F0FF0BBBF1080FD3DBC9
:1059900000BF601CC4B2B442BCDB0248A0F8009057
:1059A00000BF96E7220000204AFB0008BEFF000867
:1059B00024000020F8010020014908807047000001
:1059C0000008006C0149088070470000FE07006C69
:1059D000024800890249088070470000F801002051
:1059E000FE07006C024A1080921C11807047000074
:1059F000FE07006C10B50446412C26D1082108464C
:105A0000FBF722F83D21112002F0AEFE862117207F
:105A100002F0AAFE7F21262002F0A6FE1E212D20E4
:105A200002F0A2FE00212C2002F09EFE8D212A20F1
:105A300002F09AFE3E212B2002F096FE4FF47A707F
:105A400003F09AFE00F0A1F901E0012010BD002052
:105A5000FCE700BFFEE7704708B54FF4C06000F0F8
:105A600047F80A208DF8000000208DF801008DF81D
:105A7000020001208DF80300684600F001F808BD1F
:105A800070B5002100230F22C47804B3154C24689C
:105A900004F4E064C4F5E064210AC1F10403CA40DF
:105AA000447804FA03F184781440214309010E4C30
:105AB0000678A155047804F01F050124AC40057850
:105AC0006D11AD0005F1E025C5F8004109E004784D
:105AD00004F01F050124AC40044D0678761145F80A
